{
  "_format": "hh-sol-artifact-1",
  "contractName": "SavvyFrontendInfoAggregator",
  "sourceName": "contracts/SavvyFrontendInfoAggregator.sol",
  "abi": [
    {
      "inputs": [],
      "stateMutability": "nonpayable",
      "type": "constructor"
    },
    {
      "anonymous": false,
      "inputs": [
        {
          "indexed": false,
          "internalType": "uint8",
          "name": "version",
          "type": "uint8"
        }
      ],
      "name": "Initialized",
      "type": "event"
    },
    {
      "anonymous": false,
      "inputs": [
        {
          "indexed": true,
          "internalType": "address",
          "name": "previousOwner",
          "type": "address"
        },
        {
          "indexed": true,
          "internalType": "address",
          "name": "newOwner",
          "type": "address"
        }
      ],
      "name": "OwnershipTransferStarted",
      "type": "event"
    },
    {
      "anonymous": false,
      "inputs": [
        {
          "indexed": true,
          "internalType": "address",
          "name": "previousOwner",
          "type": "address"
        },
        {
          "indexed": true,
          "internalType": "address",
          "name": "newOwner",
          "type": "address"
        }
      ],
      "name": "OwnershipTransferred",
      "type": "event"
    },
    {
      "inputs": [],
      "name": "acceptOwnership",
      "outputs": [],
      "stateMutability": "nonpayable",
      "type": "function"
    },
    {
      "inputs": [
        {
          "internalType": "address",
          "name": "account_",
          "type": "address"
        }
      ],
      "name": "getDashboardPageInfo",
      "outputs": [
        {
          "components": [
            {
              "components": [
                {
                  "internalType": "address",
                  "name": "token",
                  "type": "address"
                },
                {
                  "internalType": "uint256",
                  "name": "amount",
                  "type": "uint256"
                },
                {
                  "internalType": "uint256",
                  "name": "valueUSD",
                  "type": "uint256"
                }
              ],
              "internalType": "struct ISavvyInfoAggregatorStructs.FullSavvyPosition[]",
              "name": "debtTokens",
              "type": "tuple[]"
            },
            {
              "components": [
                {
                  "internalType": "address",
                  "name": "token",
                  "type": "address"
                },
                {
                  "internalType": "uint256",
                  "name": "amount",
                  "type": "uint256"
                },
                {
                  "internalType": "uint256",
                  "name": "valueUSD",
                  "type": "uint256"
                }
              ],
              "internalType": "struct ISavvyInfoAggregatorStructs.FullSavvyPosition[]",
              "name": "depositedTokens",
              "type": "tuple[]"
            },
            {
              "components": [
                {
                  "internalType": "address",
                  "name": "token",
                  "type": "address"
                },
                {
                  "internalType": "uint256",
                  "name": "amount",
                  "type": "uint256"
                },
                {
                  "internalType": "uint256",
                  "name": "valueUSD",
                  "type": "uint256"
                }
              ],
              "internalType": "struct ISavvyInfoAggregatorStructs.FullSavvyPosition[]",
              "name": "availableDeposit",
              "type": "tuple[]"
            },
            {
              "components": [
                {
                  "internalType": "address",
                  "name": "token",
                  "type": "address"
                },
                {
                  "internalType": "uint256",
                  "name": "amount",
                  "type": "uint256"
                },
                {
                  "internalType": "uint256",
                  "name": "valueUSD",
                  "type": "uint256"
                }
              ],
              "internalType": "struct ISavvyInfoAggregatorStructs.FullSavvyPosition[]",
              "name": "availableCredit",
              "type": "tuple[]"
            },
            {
              "components": [
                {
                  "internalType": "address",
                  "name": "savvyPositionManager",
                  "type": "address"
                },
                {
                  "internalType": "int256",
                  "name": "amount",
                  "type": "int256"
                },
                {
                  "internalType": "int256",
                  "name": "valueUSD",
                  "type": "int256"
                }
              ],
              "internalType": "struct ISavvyInfoAggregatorStructs.FullDebtInfo[]",
              "name": "outstandingDebt",
              "type": "tuple[]"
            }
          ],
          "internalType": "struct ISavvyInfoAggregatorStructs.DashboardPageInfo",
          "name": "",
          "type": "tuple"
        }
      ],
      "stateMutability": "view",
      "type": "function"
    },
    {
      "inputs": [
        {
          "internalType": "address",
          "name": "account_",
          "type": "address"
        }
      ],
      "name": "getMySVYPageInfo",
      "outputs": [
        {
          "components": [
            {
              "internalType": "uint256",
              "name": "svyBalance",
              "type": "uint256"
            },
            {
              "internalType": "uint256",
              "name": "stakedSVYBalance",
              "type": "uint256"
            },
            {
              "internalType": "uint256",
              "name": "claimableSVY",
              "type": "uint256"
            },
            {
              "internalType": "uint256",
              "name": "svyEarnRatePerSec",
              "type": "uint256"
            },
            {
              "internalType": "uint256",
              "name": "veSVYBalance",
              "type": "uint256"
            },
            {
              "internalType": "uint256",
              "name": "claimableVeSVY",
              "type": "uint256"
            },
            {
              "internalType": "uint256",
              "name": "veSVYEarnRatePerSec",
              "type": "uint256"
            },
            {
              "internalType": "uint256",
              "name": "maxVeSvyEarnable",
              "type": "uint256"
            }
          ],
          "internalType": "struct ISavvyInfoAggregatorStructs.MySVYPageInfo",
          "name": "",
          "type": "tuple"
        }
      ],
      "stateMutability": "view",
      "type": "function"
    },
    {
      "inputs": [
        {
          "internalType": "address",
          "name": "account_",
          "type": "address"
        }
      ],
      "name": "getPoolsPageInfo",
      "outputs": [
        {
          "components": [
            {
              "components": [
                {
                  "internalType": "address",
                  "name": "savvyPositionManager",
                  "type": "address"
                },
                {
                  "internalType": "address",
                  "name": "poolAddress",
                  "type": "address"
                },
                {
                  "internalType": "address",
                  "name": "baseTokenAddress",
                  "type": "address"
                },
                {
                  "internalType": "uint256",
                  "name": "userDepositedAmount",
                  "type": "uint256"
                },
                {
                  "internalType": "uint256",
                  "name": "userDepositedValueUSD",
                  "type": "uint256"
                },
                {
                  "internalType": "uint256",
                  "name": "poolDepositedAmount",
                  "type": "uint256"
                },
                {
                  "internalType": "uint256",
                  "name": "poolDepositedValueUSD",
                  "type": "uint256"
                },
                {
                  "internalType": "uint256",
                  "name": "maxPoolDepositedAmount",
                  "type": "uint256"
                },
                {
                  "internalType": "uint256",
                  "name": "maxPoolDepositedValueUSD",
                  "type": "uint256"
                },
                {
                  "internalType": "uint256",
                  "name": "maxWithdrawableShares",
                  "type": "uint256"
                },
                {
                  "internalType": "uint256",
                  "name": "maxWithdrawableAmount",
                  "type": "uint256"
                }
              ],
              "internalType": "struct ISavvyInfoAggregatorStructs.FullPoolInfo[]",
              "name": "pools",
              "type": "tuple[]"
            },
            {
              "components": [
                {
                  "internalType": "address",
                  "name": "token",
                  "type": "address"
                },
                {
                  "internalType": "uint256",
                  "name": "amount",
                  "type": "uint256"
                },
                {
                  "internalType": "uint256",
                  "name": "valueUSD",
                  "type": "uint256"
                }
              ],
              "internalType": "struct ISavvyInfoAggregatorStructs.FullSavvyPosition[]",
              "name": "debtTokens",
              "type": "tuple[]"
            },
            {
              "components": [
                {
                  "internalType": "address",
                  "name": "token",
                  "type": "address"
                },
                {
                  "internalType": "uint256",
                  "name": "amount",
                  "type": "uint256"
                },
                {
                  "internalType": "uint256",
                  "name": "valueUSD",
                  "type": "uint256"
                }
              ],
              "internalType": "struct ISavvyInfoAggregatorStructs.FullSavvyPosition[]",
              "name": "availableDeposit",
              "type": "tuple[]"
            },
            {
              "components": [
                {
                  "internalType": "address",
                  "name": "token",
                  "type": "address"
                },
                {
                  "internalType": "uint256",
                  "name": "amount",
                  "type": "uint256"
                },
                {
                  "internalType": "uint256",
                  "name": "valueUSD",
                  "type": "uint256"
                }
              ],
              "internalType": "struct ISavvyInfoAggregatorStructs.FullSavvyPosition[]",
              "name": "availableCredit",
              "type": "tuple[]"
            },
            {
              "components": [
                {
                  "internalType": "address",
                  "name": "savvyPositionManager",
                  "type": "address"
                },
                {
                  "internalType": "int256",
                  "name": "amount",
                  "type": "int256"
                },
                {
                  "internalType": "int256",
                  "name": "valueUSD",
                  "type": "int256"
                }
              ],
              "internalType": "struct ISavvyInfoAggregatorStructs.FullDebtInfo[]",
              "name": "outstandingDebt",
              "type": "tuple[]"
            }
          ],
          "internalType": "struct ISavvyInfoAggregatorStructs.PoolsPageInfo",
          "name": "",
          "type": "tuple"
        }
      ],
      "stateMutability": "view",
      "type": "function"
    },
    {
      "inputs": [],
      "name": "getSavvySwaps",
      "outputs": [
        {
          "internalType": "address[]",
          "name": "",
          "type": "address[]"
        }
      ],
      "stateMutability": "view",
      "type": "function"
    },
    {
      "inputs": [
        {
          "internalType": "address",
          "name": "account_",
          "type": "address"
        }
      ],
      "name": "getSwapPageInfo",
      "outputs": [
        {
          "components": [
            {
              "components": [
                {
                  "internalType": "address",
                  "name": "savvySwap",
                  "type": "address"
                },
                {
                  "internalType": "address",
                  "name": "depositToken",
                  "type": "address"
                },
                {
                  "internalType": "address",
                  "name": "swapTargetToken",
                  "type": "address"
                },
                {
                  "internalType": "uint256",
                  "name": "availableDepositAmount",
                  "type": "uint256"
                },
                {
                  "internalType": "uint256",
                  "name": "depositedAmount",
                  "type": "uint256"
                },
                {
                  "internalType": "uint256",
                  "name": "claimableAmount",
                  "type": "uint256"
                }
              ],
              "internalType": "struct ISavvyInfoAggregatorStructs.SwapInfo[]",
              "name": "swapInfos",
              "type": "tuple[]"
            }
          ],
          "internalType": "struct ISavvyInfoAggregatorStructs.SwapPageInfo",
          "name": "",
          "type": "tuple"
        }
      ],
      "stateMutability": "view",
      "type": "function"
    },
    {
      "inputs": [],
      "name": "infoAggregator",
      "outputs": [
        {
          "internalType": "contract IInfoAggregator",
          "name": "",
          "type": "address"
        }
      ],
      "stateMutability": "view",
      "type": "function"
    },
    {
      "inputs": [
        {
          "internalType": "contract IInfoAggregator",
          "name": "infoAggregator_",
          "type": "address"
        },
        {
          "internalType": "address[]",
          "name": "savvySwaps_",
          "type": "address[]"
        }
      ],
      "name": "initialize",
      "outputs": [],
      "stateMutability": "nonpayable",
      "type": "function"
    },
    {
      "inputs": [],
      "name": "owner",
      "outputs": [
        {
          "internalType": "address",
          "name": "",
          "type": "address"
        }
      ],
      "stateMutability": "view",
      "type": "function"
    },
    {
      "inputs": [],
      "name": "pendingOwner",
      "outputs": [
        {
          "internalType": "address",
          "name": "",
          "type": "address"
        }
      ],
      "stateMutability": "view",
      "type": "function"
    },
    {
      "inputs": [],
      "name": "renounceOwnership",
      "outputs": [],
      "stateMutability": "nonpayable",
      "type": "function"
    },
    {
      "inputs": [
        {
          "internalType": "address",
          "name": "infoAggregator_",
          "type": "address"
        }
      ],
      "name": "setInfoAggregator",
      "outputs": [],
      "stateMutability": "nonpayable",
      "type": "function"
    },
    {
      "inputs": [
        {
          "internalType": "address[]",
          "name": "savvySwaps_",
          "type": "address[]"
        },
        {
          "internalType": "bool[]",
          "name": "shouldAdd_",
          "type": "bool[]"
        }
      ],
      "name": "setSavvySwap",
      "outputs": [],
      "stateMutability": "nonpayable",
      "type": "function"
    },
    {
      "inputs": [
        {
          "internalType": "address",
          "name": "newOwner",
          "type": "address"
        }
      ],
      "name": "transferOwnership",
      "outputs": [],
      "stateMutability": "nonpayable",
      "type": "function"
    }
  ],
  "bytecode": "0x60806040523480156200001157600080fd5b506200001c62000022565b620000e3565b600054610100900460ff16156200008f5760405162461bcd60e51b815260206004820152602760248201527f496e697469616c697a61626c653a20636f6e747261637420697320696e697469604482015266616c697a696e6760c81b606482015260840160405180910390fd5b60005460ff90811614620000e1576000805460ff191660ff9081179091556040519081527f7f26b83ff96e1f2b6a682f133852f6798a09c465da95921460cefb38474024989060200160405180910390a15b565b614d4e80620000f36000396000f3fe608060405234801561001057600080fd5b50600436106100ea5760003560e01c80638bf5aaed1161008c578063975219dd11610066578063975219dd1461023e578063e30c397814610251578063ecd65e3214610262578063f2fde38b1461027557600080fd5b80638bf5aaed146101f35780638da5cb5b14610206578063946d92041461022b57600080fd5b806337c8f6fe116100c857806337c8f6fe14610158578063715018a61461016d57806379ba5097146101775780637aa60db21461017f57600080fd5b8063257acb30146100ef57806332e70ff9146101185780633744209b14610138575b600080fd5b6101026100fd3660046141ba565b610288565b60405161010f9190614231565b60405180910390f35b61012b6101263660046141ba565b61043e565b60405161010f9190614367565b61014b6101463660046141ba565b610832565b60405161010f91906143f9565b61016061094f565b60405161010f919061448b565b610175610968565b005b61017561097c565b61019261018d3660046141ba565b6109fb565b60405161010f9190600061010082019050825182526020830151602083015260408301516040830152606083015160608301526080830151608083015260a083015160a083015260c083015160c083015260e083015160e083015292915050565b6101756102013660046141ba565b610f8d565b6033546001600160a01b03165b6040516001600160a01b03909116815260200161010f565b6101756102393660046145de565b611001565b61017561024c36600461463b565b611260565b6065546001600160a01b0316610213565b609754610213906001600160a01b031681565b6101756102833660046141ba565b6113e3565b6102ba6040518060a0016040528060608152602001606081526020016060815260200160608152602001606081525090565b6040805180820190915260148152737a65726f206163636f756e74206164647265737360601b60208201526102fb906001600160a01b038416151590611454565b60975460408051632365e74b60e01b815290516000926001600160a01b031691632365e74b91600480830192869291908290030181865afa158015610344573d6000803e3d6000fd5b505050506040513d6000823e601f3d908101601f1916820160405261036c9190810190614772565b90506000609760009054906101000a90046001600160a01b03166001600160a01b031663c3309ba86040518163ffffffff1660e01b8152600401602060405180830381865afa1580156103c3573d6000803e3d6000fd5b505050506040513d601f19601f820116820180604052508101906103e791906147a6565b905060006103f6828487611473565b90506000610405848785611d1b565b6040805160a081018252938452815160208501528082015190840152606080820151908401526080908101519083015250949350505050565b6040805160208101909152606081526040805180820190915260148152737a65726f206163636f756e74206164647265737360601b602082015261048e906001600160a01b038416151590611454565b600061049a6098612671565b90506000816001600160401b038111156104b6576104b66144d8565b60405190808252806020026020018201604052801561051657816020015b6040805160c08101825260008082526020808301829052928201819052606082018190526080820181905260a082015282526000199092019101816104d45790505b50905060005b8281101561081c57600061053160988361267b565b90506000816001600160a01b0316638230ecd66040518163ffffffff1660e01b8152600401602060405180830381865afa158015610573573d6000803e3d6000fd5b505050506040513d601f19601f8201168201806040525081019061059791906147a6565b90506040518060c00160405280836001600160a01b03168152602001826001600160a01b03168152602001836001600160a01b031663c55dae636040518163ffffffff1660e01b8152600401602060405180830381865afa158015610600573d6000803e3d6000fd5b505050506040513d601f19601f8201168201806040525081019061062491906147a6565b6001600160a01b0390811682526040516370a0823160e01b81528a82166004820152602090920191908416906370a0823190602401602060405180830381865afa158015610676573d6000803e3d6000fd5b505050506040513d601f19601f8201168201806040525081019061069a91906147c3565b81526040516339a432f960e21b81526001600160a01b038a8116600483015260209092019185169063e690cbe490602401602060405180830381865afa1580156106e8573d6000803e3d6000fd5b505050506040513d601f19601f8201168201806040525081019061070c91906147c3565b8152602001836001600160a01b031663602631ef6040518163ffffffff1660e01b8152600401602060405180830381865afa15801561074f573d6000803e3d6000fd5b505050506040513d601f19601f8201168201806040525081019061077391906147c3565b60405163036f7c0160e11b81526001600160a01b038b811660048301528616906306def80290602401602060405180830381865afa1580156107b9573d6000803e3d6000fd5b505050506040513d601f19601f820116820180604052508101906107dd91906147c3565b6107e791906147f2565b8152508484815181106107fc576107fc614809565b6020026020010181905250505080806108149061481f565b91505061051c565b5060408051602081019091529081529392505050565b6108646040518060a0016040528060608152602001606081526020016060815260200160608152602001606081525090565b60975460408051632365e74b60e01b81529051610949926001600160a01b031691632365e74b9160048083019260009291908290030181865afa1580156108af573d6000803e3d6000fd5b505050506040513d6000823e601f3d908101601f191682016040526108d79190810190614772565b60975460408051631866137560e31b8152905186926001600160a01b03169163c3309ba89160048083019260209291908290030181865afa158015610920573d6000803e3d6000fd5b505050506040513d601f19601f8201168201806040525081019061094491906147a6565b611d1b565b92915050565b6060610959612687565b61096360986126e1565b905090565b610970612687565b61097a60006126ee565b565b60655433906001600160a01b031681146109ef5760405162461bcd60e51b815260206004820152602960248201527f4f776e61626c6532537465703a2063616c6c6572206973206e6f7420746865206044820152683732bb9037bbb732b960b91b60648201526084015b60405180910390fd5b6109f8816126ee565b50565b610a4360405180610100016040528060008152602001600081526020016000815260200160008152602001600081526020016000815260200160008152602001600081525090565b6040805180820190915260148152737a65726f206163636f756e74206164647265737360601b6020820152610a84906001600160a01b038416151590611454565b60975460408051630a767e7d60e41b815290516000926001600160a01b03169163a767e7d09160048083019260209291908290030181865afa158015610ace573d6000803e3d6000fd5b505050506040513d601f19601f82011682018060405250810190610af291906147a6565b90506000609760009054906101000a90046001600160a01b03166001600160a01b031663776547bc6040518163ffffffff1660e01b8152600401602060405180830381865afa158015610b49573d6000803e3d6000fd5b505050506040513d601f19601f82011682018060405250810190610b6d91906147a6565b90506000609760009054906101000a90046001600160a01b03166001600160a01b031663033885386040518163ffffffff1660e01b8152600401602060405180830381865afa158015610bc4573d6000803e3d6000fd5b505050506040513d601f19601f82011682018060405250810190610be891906147a6565b604080516101008101918290526370a0823160e01b9091526001600160a01b0387811661010483015291925090819085166370a082316101248301602060405180830381865afa158015610c40573d6000803e3d6000fd5b505050506040513d601f19601f82011682018060405250810190610c6491906147c3565b815260405163053a0cdd60e01b81526001600160a01b03888116600483015260209092019185169063053a0cdd90602401602060405180830381865afa158015610cb2573d6000803e3d6000fd5b505050506040513d601f19601f82011682018060405250810190610cd691906147c3565b8152604051631847200f60e11b81526001600160a01b03888116600483015260209092019184169063308e401e90602401602060405180830381865afa158015610d24573d6000803e3d6000fd5b505050506040513d601f19601f82011682018060405250810190610d4891906147c3565b8152604051632c0ecf9160e21b81526001600160a01b03888116600483015260209092019184169063b03b3e4490602401602060405180830381865afa158015610d96573d6000803e3d6000fd5b505050506040513d601f19601f82011682018060405250810190610dba91906147c3565b81526040516370a0823160e01b81526001600160a01b0388811660048301526020909201918516906370a0823190602401602060405180830381865afa158015610e08573d6000803e3d6000fd5b505050506040513d601f19601f82011682018060405250810190610e2c91906147c3565b815260405163402914f560e01b81526001600160a01b03888116600483015260209092019185169063402914f590602401602060405180830381865afa158015610e7a573d6000803e3d6000fd5b505050506040513d601f19601f82011682018060405250810190610e9e91906147c3565b81526040516354cf324360e11b81526001600160a01b03888116600483015260209092019185169063a99e648690602401602060405180830381865afa158015610eec573d6000803e3d6000fd5b505050506040513d601f19601f82011682018060405250810190610f1091906147c3565b815260405163ec28e70160e01b81526001600160a01b03888116600483015260209092019185169063ec28e70190602401602060405180830381865afa158015610f5e573d6000803e3d6000fd5b505050506040513d601f19601f82011682018060405250810190610f8291906147c3565b905295945050505050565b610f95612687565b60408051808201909152601b81527f7a65726f20696e666f41676772656761746f72206164647265737300000000006020820152610fdf906001600160a01b038316151590611454565b609780546001600160a01b0319166001600160a01b0392909216919091179055565b600054610100900460ff16158080156110215750600054600160ff909116105b8061103b5750303b15801561103b575060005460ff166001145b61109e5760405162461bcd60e51b815260206004820152602e60248201527f496e697469616c697a61626c653a20636f6e747261637420697320616c72656160448201526d191e481a5b9a5d1a585b1a5e995960921b60648201526084016109e6565b6000805460ff1916600117905580156110c1576000805461ff0019166101001790555b60408051808201909152601b81527f7a65726f20696e666f41676772656761746f7220616464726573730000000000602082015261110b906001600160a01b038516151590611454565b609780546001600160a01b0319166001600160a01b038516179055815160005b8181101561120b57600084828151811061114757611147614809565b602002602001015190506111a660006001600160a01b0316826001600160a01b031614156040518060400160405280602081526020017f53617676795377617020616464726573732063616e6e6f74206265207a65726f815250611454565b6111eb6111b4609883612707565b156040518060400160405280601881526020017753617676795377617020616c72656164792065786973747360401b815250611454565b6111f6609882612729565b505080806112039061481f565b91505061112b565b5061121461273e565b50801561125b576000805461ff0019169055604051600181527f7f26b83ff96e1f2b6a682f133852f6798a09c465da95921460cefb38474024989060200160405180910390a15b505050565b611268612687565b61128e8151835114604051806060016040528060368152602001614ce360369139611454565b8151604080518082019091526016815275656d707479205361767679537761707320617272617960501b60208201526112ca9082151590611454565b60005b818110156113dd5760008482815181106112e9576112e9614809565b6020026020010151905061134860006001600160a01b0316826001600160a01b031614156040518060400160405280601781526020017f7a65726f20536176767953776170732061646472657373000000000000000000815250611454565b83828151811061135a5761135a614809565b6020026020010151156113bd576113ac611375609883612707565b60408051808201909152601881527753617676795377617020616c72656164792065786973747360401b6020820152901590611454565b6113b7609882612729565b506113ca565b6113c860988261276d565b505b50806113d58161481f565b9150506112cd565b50505050565b6113eb612687565b606580546001600160a01b0383166001600160a01b0319909116811790915561141c6033546001600160a01b031690565b6001600160a01b03167f38d16b8cac22d99fc7c124b9cd0de2d3fa1faef420bfe791d8c362d765e2270060405160405180910390a350565b808261125b5760405162461bcd60e51b81526004016109e6919061485c565b60606114c160006001600160a01b0316836001600160a01b03161415604051806040016040528060148152602001737a65726f206163636f756e74206164647265737360601b815250611454565b82516000805b828110156116a05760008682815181106114e3576114e3614809565b602002602001015190506000816001600160a01b031663d965183d6040518163ffffffff1660e01b8152600401602060405180830381865afa15801561152d573d6000803e3d6000fd5b505050506040513d601f19601f8201168201806040525081019061155191906147a6565b90506000816001600160a01b0316631b962c786040518163ffffffff1660e01b8152600401600060405180830381865afa158015611593573d6000803e3d6000fd5b505050506040513d6000823e601f3d908101601f191682016040526115bb9190810190614772565b905060005b815181101561168957826001600160a01b0316635a5efc8b8383815181106115ea576115ea614809565b60200260200101516040518263ffffffff1660e01b815260040161161d91906001600160a01b0391909116815260200190565b6101e060405180830381865afa15801561163b573d6000803e3d6000fd5b505050506040513d601f19601f8201168201806040525081019061165f91906148ab565b6101c001511561167757856116738161481f565b9650505b806116818161481f565b9150506115c0565b5050505080806116989061481f565b9150506114c7565b506000816001600160401b038111156116bb576116bb6144d8565b60405190808252806020026020018201604052801561176457816020015b61175160405180610160016040528060006001600160a01b0316815260200160006001600160a01b0316815260200160006001600160a01b0316815260200160008152602001600081526020016000815260200160008152602001600081526020016000815260200160008152602001600081525090565b8152602001906001900390816116d95790505b5090506000805b84811015611ac057600088828151811061178757611787614809565b602002602001015190506000816001600160a01b031663d965183d6040518163ffffffff1660e01b8152600401602060405180830381865afa1580156117d1573d6000803e3d6000fd5b505050506040513d601f19601f820116820180604052508101906117f591906147a6565b90506000816001600160a01b0316631b962c786040518163ffffffff1660e01b8152600401600060405180830381865afa158015611837573d6000803e3d6000fd5b505050506040513d6000823e601f3d908101601f1916820160405261185f9190810190614772565b90508b60005b8251811015611aa857600083828151811061188257611882614809565b6020908102919091010151604051635a5efc8b60e01b81526001600160a01b038083166004830152919250600091871690635a5efc8b906024016101e060405180830381865afa1580156118da573d6000803e3d6000fd5b505050506040513d601f19601f820116820180604052508101906118fe91906148ab565b9050806101c00151611911575050611a96565b60006119208f848a8a89612782565b80516040516318a9898360e01b81526001600160a01b039182166004820152919250600091908916906318a9898390602401606060405180830381865afa15801561196f573d6000803e3d6000fd5b505050506040513d601f19601f820116820180604052508101906119939190614983565b905080604001516119a75750505050611a96565b6040518061016001604052808a6001600160a01b03168152602001856001600160a01b0316815260200183600001516001600160a01b03168152602001836020015181526020018360400151815260200182600001518560c00151611a0c91906147f2565b8152602001611a248885600001518760c001516129ec565b815260200182600001518560200151611a3d91906147f2565b8152602001611a5588856000015187602001516129ec565b81526020016000815260200160008152508c8c81518110611a7857611a78614809565b60200260200101819052508a80611a8e9061481f565b9b5050505050505b80611aa08161481f565b915050611865565b50505050508080611ab89061481f565b91505061176b565b506000905060005b84811015611d0c576000888281518110611ae457611ae4614809565b602002602001015190506000816001600160a01b031663d965183d6040518163ffffffff1660e01b8152600401602060405180830381865afa158015611b2e573d6000803e3d6000fd5b505050506040513d601f19601f82011682018060405250810190611b5291906147a6565b90506000611b608a84612a69565b90506000826001600160a01b0316631b962c786040518163ffffffff1660e01b8152600401600060405180830381865afa158015611ba2573d6000803e3d6000fd5b505050506040513d6000823e601f3d908101601f19168201604052611bca9190810190614772565b905060005b8151811015611cf4576000828281518110611bec57611bec614809565b6020908102919091010151604051635a5efc8b60e01b81526001600160a01b03808316600483015291925090861690635a5efc8b906024016101e060405180830381865afa158015611c42573d6000803e3d6000fd5b505050506040513d601f19601f82011682018060405250810190611c6691906148ab565b6101c00151611c755750611ce2565b6000611c818286612cd8565b905080604001518a8a81518110611c9a57611c9a614809565b602002602001015161014001818152505080606001518a8a81518110611cc257611cc2614809565b6020908102919091010151610120015288611cdc8161481f565b99505050505b80611cec8161481f565b915050611bcf565b50505050508080611d049061481f565b915050611ac8565b509093505050505b9392505050565b611d4d6040518060a0016040528060608152602001606081526020016060815260200160608152602001606081525090565b6040805180820190915260148152737a65726f206163636f756e74206164647265737360601b6020820152611d8e906001600160a01b038516151590611454565b83516000805b82811015611f6b576000878281518110611db057611db0614809565b602002602001015190506000816001600160a01b031663d965183d6040518163ffffffff1660e01b8152600401602060405180830381865afa158015611dfa573d6000803e3d6000fd5b505050506040513d601f19601f82011682018060405250810190611e1e91906147a6565b90506000816001600160a01b0316636d913a1c6040518163ffffffff1660e01b8152600401600060405180830381865afa158015611e60573d6000803e3d6000fd5b505050506040513d6000823e601f3d908101601f19168201604052611e889190810190614772565b905060005b8151811015611f5457826001600160a01b03166318a98983838381518110611eb757611eb7614809565b60200260200101516040518263ffffffff1660e01b8152600401611eea91906001600160a01b0391909116815260200190565b606060405180830381865afa158015611f07573d6000803e3d6000fd5b505050506040513d601f19601f82011682018060405250810190611f2b9190614983565b6040015115611f425785611f3e8161481f565b9650505b80611f4c8161481f565b915050611e8d565b505050508080611f639061481f565b915050611d94565b506000826001600160401b03811115611f8657611f866144d8565b604051908082528060200260200182016040528015611fbf57816020015b611fac614141565b815260200190600190039081611fa45790505b5090506000826001600160401b03811115611fdc57611fdc6144d8565b60405190808252806020026020018201604052801561201557816020015b612002614141565b815260200190600190039081611ffa5790505b5090506000836001600160401b03811115612032576120326144d8565b60405190808252806020026020018201604052801561206b57816020015b612058614141565b8152602001906001900390816120505790505b5090506000856001600160401b03811115612088576120886144d8565b6040519080825280602002602001820160405280156120c157816020015b6120ae614141565b8152602001906001900390816120a65790505b5090506000866001600160401b038111156120de576120de6144d8565b60405190808252806020026020018201604052801561213c57816020015b612129604051806060016040528060006001600160a01b0316815260200160008152602001600081525090565b8152602001906001900390816120fc5790505b50905060005b878110156124e05760008c828151811061215e5761215e614809565b602002602001015190506000816001600160a01b031663d965183d6040518163ffffffff1660e01b8152600401602060405180830381865afa1580156121a8573d6000803e3d6000fd5b505050506040513d601f19601f820116820180604052508101906121cc91906147a6565b90506121d98d8d84612d85565b8884815181106121eb576121eb614809565b60200260200101819052506122018d838e612ea7565b85848151811061221357612213614809565b60200260200101819052506122298d8d84612f62565b84848151811061223b5761223b614809565b60200260200101819052506000816001600160a01b0316631b962c786040518163ffffffff1660e01b8152600401600060405180830381865afa158015612286573d6000803e3d6000fd5b505050506040513d6000823e601f3d908101601f191682016040526122ae9190810190614772565b90508d8d60005b83518110156124c757846001600160a01b0316635a5efc8b8583815181106122df576122df614809565b60200260200101516040518263ffffffff1660e01b815260040161231291906001600160a01b0391909116815260200190565b6101e060405180830381865afa158015612330573d6000803e3d6000fd5b505050506040513d601f19601f8201168201806040525081019061235491906148ab565b6101c00151156124b55760006123868486848151811061237657612376614809565b6020026020010151898987612782565b80516040516318a9898360e01b81526001600160a01b03808316600483015292935090918816906318a9898390602401606060405180830381865afa1580156123d3573d6000803e3d6000fd5b505050506040513d601f19601f820116820180604052508101906123f79190614983565b604001516124065750506124b5565b60006124128e8361302f565b9050818e828151811061242757612427614809565b6020026020010151600001906001600160a01b031690816001600160a01b03168152505082602001518e828151811061246257612462614809565b602002602001015160200181815161247a91906149e9565b90525060408301518e518f908390811061249657612496614809565b60200260200101516040018181516124ae91906149e9565b9052505050505b806124bf8161481f565b9150506122b5565b50505050505080806124d89061481f565b915050612142565b5060005b8681101561264057600085828151811061250057612500614809565b6020908102919091010151516040516370a0823160e01b81526001600160a01b038e811660048301529192506000918316906370a0823190602401602060405180830381865afa158015612558573d6000803e3d6000fd5b505050506040513d601f19601f8201168201806040525081019061257c91906147c3565b90506000612589836130d5565b905060006125988260126149fc565b6125a390600a614af9565b9050838886815181106125b8576125b8614809565b60209081029190910101516001600160a01b0390911690526125da81846147f2565b8886815181106125ec576125ec614809565b602002602001015160200181815250506126078e85856129ec565b88868151811061261957612619614809565b602002602001015160400181815250505050505080806126389061481f565b9150506124e4565b506040805160a081018252958652602086019490945292840191909152606083015260808201529695505050505050565b6000610949825490565b6000611d1483836131b3565b6033546001600160a01b0316331461097a5760405162461bcd60e51b815260206004820181905260248201527f4f776e61626c653a2063616c6c6572206973206e6f7420746865206f776e657260448201526064016109e6565b60606000611d14836131dd565b606580546001600160a01b03191690556109f881613239565b6001600160a01b03811660009081526001830160205260408120541515611d14565b6000611d14836001600160a01b03841661328b565b600054610100900460ff166127655760405162461bcd60e51b81526004016109e690614b08565b61097a6132da565b6000611d14836001600160a01b03841661330a565b61278a614141565b60405163a96cb06960e01b81526001600160a01b038681166004830152612834919085169063a96cb06990602401602060405180830381865afa1580156127d5573d6000803e3d6000fd5b505050506040513d601f19601f820116820180604052508101906127f99190614b53565b6040518060400160405280601781526020017f756e737570706f72746564207969656c6420746f6b656e000000000000000000815250611454565b604051634bd2144560e01b81526001600160a01b038781166004830152868116602483015260009190861690634bd2144590604401606060405180830381865afa158015612886573d6000803e3d6000fd5b505050506040513d601f19601f820116820180604052508101906128aa9190614b70565b5050604051631fd95d2560e21b81526001600160a01b03888116600483015260248201839052919250600091829190871690637f657494906044016040805180830381865afa158015612901573d6000803e3d6000fd5b505050506040513d601f19601f820116820180604052508101906129259190614b9e565b9150915060006129368684846129ec565b604051630cb69ec960e21b81526001600160a01b0385811660048301529192506000918916906332da7b2490602401606060405180830381865afa158015612982573d6000803e3d6000fd5b505050506040513d601f19601f820116820180604052508101906129a69190614983565b80519091506000906129b890856147f2565b604080516060810182526001600160a01b039097168752602087019190915285019290925250919998505050505050505050565b604051633735ed8760e01b81526001600160a01b0383811660048301526024820183905260009190851690633735ed8790604401602060405180830381865afa158015612a3d573d6000803e3d6000fd5b505050506040513d601f19601f82011682018060405250810190612a6191906147c3565b949350505050565b6060600083905060008390506000816001600160a01b031663d965183d6040518163ffffffff1660e01b8152600401602060405180830381865afa158015612ab5573d6000803e3d6000fd5b505050506040513d601f19601f82011682018060405250810190612ad991906147a6565b604051632f2e037160e11b81526001600160a01b038581166004830152919250600091829190851690635e5c06e290602401600060405180830381865afa158015612b28573d6000803e3d6000fd5b505050506040513d6000823e601f3d908101601f19168201604052612b509190810190614bcc565b805191935091506000819003612b9f576040805160008082526020820190925290612b91565b612b7e61416b565b815260200190600190039081612b765790505b509650505050505050610949565b6000612bad878488886133fd565b90506000866001600160a01b031663e8b6571b6040518163ffffffff1660e01b8152600401602060405180830381865afa158015612bef573d6000803e3d6000fd5b505050506040513d601f19601f82011682018060405250810190612c1391906147c3565b9050600080861315612c255785612c28565b60005b905060018115612c6257600082612c47670de0b6b3a7640000876147f2565b612c519190614c08565b905083811015612c6057600091505b505b60008115612c9657670de0b6b3a7640000612c7d84866147f2565b612c879190614c08565b612c919086614c2a565b612c99565b60005b905060648111612ca857600091505b8115612cb45780612cb7565b60005b9050612cc686828d8a8e613645565b9e9d5050505050505050505050505050565b612ce061416b565b815160005b81811015612d5857838181518110612cff57612cff614809565b6020026020010151602001516001600160a01b0316856001600160a01b031603612d4657838181518110612d3557612d35614809565b602002602001015192505050610949565b80612d508161481f565b915050612ce5565b50506040805160808101825260008082526020820181905291810182905260608101919091529392505050565b612d8d614141565b6000826001600160a01b031663f8d898986040518163ffffffff1660e01b8152600401602060405180830381865afa158015612dcd573d6000803e3d6000fd5b505050506040513d601f19601f82011682018060405250810190612df191906147a6565b6040516370a0823160e01b81526001600160a01b0387811660048301529192506000918316906370a0823190602401602060405180830381865afa158015612e3d573d6000803e3d6000fd5b505050506040513d601f19601f82011682018060405250810190612e6191906147c3565b90506000612e78612e7183613a7f565b8787613aca565b604080516060810182526001600160a01b03909516855260208501939093529183019190915250949350505050565b612eaf614141565b6000612ebb8585613c80565b90506000612ed2612ecb83613a7f565b8587613aca565b90506040518060600160405280866001600160a01b031663f8d898986040518163ffffffff1660e01b8152600401602060405180830381865afa158015612f1d573d6000803e3d6000fd5b505050506040513d601f19601f82011682018060405250810190612f4191906147a6565b6001600160a01b031681526020810193909352604090920152949350505050565b612f8f604051806060016040528060006001600160a01b0316815260200160008152602001600081525090565b604051632f2e037160e11b81526001600160a01b03858116600483015260009190841690635e5c06e290602401600060405180830381865afa158015612fd9573d6000803e3d6000fd5b505050506040513d6000823e601f3d908101601f191682016040526130019190810190614bcc565b5090506040518060600160405280846001600160a01b03168152602001828152602001610f82868689613f51565b6000805b83518110156130c657826001600160a01b031684828151811061305857613058614809565b6020026020010151600001516001600160a01b031614806130a8575060006001600160a01b031684828151811061309157613091614809565b6020026020010151600001516001600160a01b0316145b156130b4579050610949565b806130be8161481f565b915050613033565b5060018351611d149190614c2a565b60408051600481526024810182526020810180516001600160e01b031663313ce56760e01b1790529051600091829182916001600160a01b0386169161311b9190614c3d565b600060405180830381855afa9150503d8060008114613156576040519150601f19603f3d011682016040523d82523d6000602084013e61315b565b606091505b5091509150816040518060400160405280600681526020016553565931303160d01b8152509061319e5760405162461bcd60e51b81526004016109e6919061485c565b5080806020019051810190612a619190614c59565b60008260000182815481106131ca576131ca614809565b9060005260206000200154905092915050565b60608160000180548060200260200160405190810160405280929190818152602001828054801561322d57602002820191906000526020600020905b815481526020019060010190808311613219575b50505050509050919050565b603380546001600160a01b038381166001600160a01b0319831681179093556040519116919082907f8be0079c531659141344cd1fd0a4f28419497f9722a3daafe3b4186f6b6457e090600090a35050565b60008181526001830160205260408120546132d257508154600181810184556000848152602080822090930184905584548482528286019093526040902091909155610949565b506000610949565b600054610100900460ff166133015760405162461bcd60e51b81526004016109e690614b08565b61097a336126ee565b600081815260018301602052604081205480156133f357600061332e600183614c2a565b855490915060009061334290600190614c2a565b90508181146133a757600086600001828154811061336257613362614809565b906000526020600020015490508087600001848154811061338557613385614809565b6000918252602080832090910192909255918252600188019052604090208390555b85548690806133b8576133b8614c74565b600190038181906000526020600020016000905590558560010160008681526020019081526020016000206000905560019350505050610949565b6000915050610949565b8251600090815b8181101561363b57600086828151811061342057613420614809565b60209081029190910101516040516355f2334160e01b81526001600160a01b0380831660048301529192506000918716906355f23341906024016101e060405180830381865afa158015613478573d6000803e3d6000fd5b505050506040513d601f19601f8201168201806040525081019061349c91906148ab565b610160810151604051634bd2144560e01b81526001600160a01b038c8116600483015285811660248301529293509091600091908a1690634bd2144590604401606060405180830381865afa1580156134f9573d6000803e3d6000fd5b505050506040513d601f19601f8201168201806040525081019061351d9190614b70565b5050604051631fd95d2560e21b81526001600160a01b038681166004830152602482018390529192506000918a1690637f657494906044016040805180830381865afa158015613571573d6000803e3d6000fd5b505050506040513d601f19601f820116820180604052508101906135959190614b9e565b604051630cb69ec960e21b81526001600160a01b03868116600483015291935060009250908b16906332da7b2490602401606060405180830381865afa1580156135e3573d6000803e3d6000fd5b505050506040513d601f19601f820116820180604052508101906136079190614983565b805190915061361690836147f2565b613620908a6149e9565b985050505050505080806136339061481f565b915050613404565b5050949350505050565b60606000866001600160401b03811115613661576136616144d8565b60405190808252806020026020018201604052801561369a57816020015b61368761416b565b81526020019060019003908161367f5790505b5090506000836001600160a01b031663d965183d6040518163ffffffff1660e01b8152600401602060405180830381865afa1580156136dd573d6000803e3d6000fd5b505050506040513d601f19601f8201168201806040525081019061370191906147a6565b90508660005b89811015613a7157600087828151811061372357613723614809565b602002602001015190506040518060800160405280886001600160a01b03168152602001826001600160a01b0316815260200160008152602001600081525085838151811061377457613774614809565b60209081029190910101528215613a5e576040516355f2334160e01b81526001600160a01b038281166004830152600091908616906355f23341906024016101e060405180830381865afa1580156137d0573d6000803e3d6000fd5b505050506040513d601f19601f820116820180604052508101906137f491906148ab565b610160810151604051634bd2144560e01b81526001600160a01b038d8116600483015285811660248301529293509091600091908b1690634bd2144590604401606060405180830381865afa158015613851573d6000803e3d6000fd5b505050506040513d601f19601f820116820180604052508101906138759190614b70565b5050604051631fd95d2560e21b81526001600160a01b03868116600483015260248201839052919250600091891690637f657494906044016040805180830381865afa1580156138c9573d6000803e3d6000fd5b505050506040513d601f19601f820116820180604052508101906138ed9190614b9e565b604051630cb69ec960e21b81526001600160a01b03868116600483015291935060009250908a16906332da7b2490602401606060405180830381865afa15801561393b573d6000803e3d6000fd5b505050506040513d601f19601f8201168201806040525081019061395f9190614983565b805190915060009061397190846147f2565b9050600061397f8a83613ffa565b9050808c8a8151811061399457613994614809565b602002602001015160400181815250508a6001600160a01b031663929bcffb898560000151846139c49190614c08565b6040516001600160e01b031960e085901b1681526001600160a01b0390921660048301526024820152604401602060405180830381865afa158015613a0d573d6000803e3d6000fd5b505050506040513d601f19601f82011682018060405250810190613a3191906147c3565b9050808c8a81518110613a4657613a46614809565b60200260200101516060018181525050505050505050505b5080613a698161481f565b915050613707565b509198975050505050505050565b6000600160ff1b8210613ac65760405162461bcd60e51b815260206004820152600f60248201526e125b1b1959d85b105c99dd5b595b9d608a1b60448201526064016109e6565b5090565b600080613ad68561400f565b90506000836001600160a01b031663d965183d6040518163ffffffff1660e01b8152600401602060405180830381865afa158015613b18573d6000803e3d6000fd5b505050506040513d601f19601f82011682018060405250810190613b3c91906147a6565b90506000816001600160a01b0316631b962c786040518163ffffffff1660e01b8152600401600060405180830381865afa158015613b7e573d6000803e3d6000fd5b505050506040513d6000823e601f3d908101601f19168201604052613ba69190810190614772565b90508051600003613bbd5760009350505050611d14565b600081600081518110613bd257613bd2614809565b6020908102919091010151604051635a5efc8b60e01b81526001600160a01b038083166004830152919250600091851690635a5efc8b906024016101e060405180830381865afa158015613c2a573d6000803e3d6000fd5b505050506040513d601f19601f82011682018060405250810190613c4e91906148ab565b6101608101519091506000613c64898389614053565b9050613c718a83836129ec565b9b9a5050505050505050505050565b600080826001600160a01b031663d965183d6040518163ffffffff1660e01b8152600401602060405180830381865afa158015613cc1573d6000803e3d6000fd5b505050506040513d601f19601f82011682018060405250810190613ce591906147a6565b90506000816001600160a01b031663a5058f266040518163ffffffff1660e01b8152600401602060405180830381865afa158015613d27573d6000803e3d6000fd5b505050506040513d601f19601f82011682018060405250810190613d4b91906147c3565b604051632f2e037160e11b81526001600160a01b03808816600483015291925086916000918291881690635e5c06e290602401600060405180830381865afa158015613d9b573d6000803e3d6000fd5b505050506040513d6000823e601f3d908101601f19168201604052613dc39190810190614bcc565b91509150805160001480613dd5575083155b15613de857600095505050505050610949565b6000613df684838a896133fd565b90506000886001600160a01b031663e8b6571b6040518163ffffffff1660e01b8152600401602060405180830381865afa158015613e38573d6000803e3d6000fd5b505050506040513d601f19601f82011682018060405250810190613e5c91906147c3565b9050600080851315613e6e5784613e71565b60005b90508015613eb657600081613e8e670de0b6b3a7640000866147f2565b613e989190614c08565b905082811015613eb45760009950505050505050505050610949565b505b600082670de0b6b3a764000080613ecd85846147f2565b613ed79190614c08565b613ee19087614c2a565b613eeb91906147f2565b613ef59190614c08565b905060008612613f055780613f1b565b613f1186600019614c8a565b613f1b90826149e9565b905060648111613f375760009950505050505050505050610949565b613f418189613ffa565b9c9b505050505050505050505050565b604051632f2e037160e11b81526001600160a01b0382811660048301526000918291851690635e5c06e290602401600060405180830381865afa158015613f9c573d6000803e3d6000fd5b505050506040513d6000823e601f3d908101601f19168201604052613fc49190810190614bcc565b509050600080821315613ff157613fe4613fdf838888613aca565b613a7f565b613fee9082614cba565b90505b95945050505050565b60008183116140095782611d14565b50919050565b600080821215613ac65760405162461bcd60e51b815260206004820152600f60248201526e125b1b1959d85b105c99dd5b595b9d608a1b60448201526064016109e6565b600080846001600160a01b031663d965183d6040518163ffffffff1660e01b8152600401602060405180830381865afa158015614094573d6000803e3d6000fd5b505050506040513d601f19601f820116820180604052508101906140b891906147a6565b6040516318a9898360e01b81526001600160a01b0386811660048301529192506000918316906318a9898390602401606060405180830381865afa158015614104573d6000803e3d6000fd5b505050506040513d601f19601f820116820180604052508101906141289190614983565b80519091506141379085614c08565b9695505050505050565b604051806060016040528060006001600160a01b0316815260200160008152602001600081525090565b604051806080016040528060006001600160a01b0316815260200160006001600160a01b0316815260200160008152602001600081525090565b6001600160a01b03811681146109f857600080fd5b6000602082840312156141cc57600080fd5b8135611d14816141a5565b600081518084526020808501945080840160005b8381101561422657815180516001600160a01b03168852838101518489015260409081015190880152606090960195908201906001016141eb565b509495945050505050565b6000602080835260c0808401855160a0808588015282825180855260e094508489019150868401935060005b818110156142ed57845180516001600160a01b0390811685528982015181168a860152604080830151909116908501526060808201519085015260808082015190850152848101518585015287810151888501528681015187850152610100808201519085015261012080820151908501526101409081015190840152938701936101609092019160010161425d565b5050858901519550601f1994508488820301604089015261430e81876141d7565b955050604088015192508387860301606088015261432c85846141d7565b9450606088015192508387860301608088015261434985846141d7565b945060808801519250838786030181880152505061413783826141d7565b60006020808352604080840185518384870152818151808452606093508388019150858301925060005b818110156143eb57835180516001600160a01b0390811685528882015181168986015287820151168785015285810151868501526080808201519085015260a090810151908401529286019260c090920191600101614391565b509098975050505050505050565b602081526000825160a0602084015261441560c08401826141d7565b90506020840151601f198085840301604086015261443383836141d7565b9250604086015191508085840301606086015261445083836141d7565b9250606086015191508085840301608086015261446d83836141d7565b925060808601519150808584030160a086015250613ff182826141d7565b6020808252825182820181905260009190848201906040850190845b818110156144cc5783516001600160a01b0316835292840192918401916001016144a7565b50909695505050505050565b634e487b7160e01b600052604160045260246000fd5b6040516101e081016001600160401b0381118282101715614511576145116144d8565b60405290565b604051601f8201601f191681016001600160401b038111828210171561453f5761453f6144d8565b604052919050565b60006001600160401b03821115614560576145606144d8565b5060051b60200190565b600082601f83011261457b57600080fd5b8135602061459061458b83614547565b614517565b82815260059290921b840181019181810190868411156145af57600080fd5b8286015b848110156145d35780356145c6816141a5565b83529183019183016145b3565b509695505050505050565b600080604083850312156145f157600080fd5b82356145fc816141a5565b915060208301356001600160401b0381111561461757600080fd5b6146238582860161456a565b9150509250929050565b80151581146109f857600080fd5b6000806040838503121561464e57600080fd5b82356001600160401b038082111561466557600080fd5b6146718683870161456a565b935060209150818501358181111561468857600080fd5b85019050601f8101861361469b57600080fd5b80356146a961458b82614547565b81815260059190911b820183019083810190888311156146c857600080fd5b928401925b828410156146ef5783356146e08161462d565b825292840192908401906146cd565b80955050505050509250929050565b8051614709816141a5565b919050565b600082601f83011261471f57600080fd5b8151602061472f61458b83614547565b82815260059290921b8401810191818101908684111561474e57600080fd5b8286015b848110156145d3578051614765816141a5565b8352918301918301614752565b60006020828403121561478457600080fd5b81516001600160401b0381111561479a57600080fd5b612a618482850161470e565b6000602082840312156147b857600080fd5b8151611d14816141a5565b6000602082840312156147d557600080fd5b5051919050565b634e487b7160e01b600052601160045260246000fd5b8082028115828204841417610949576109496147dc565b634e487b7160e01b600052603260045260246000fd5b600060018201614831576148316147dc565b5060010190565b60005b8381101561485357818101518382015260200161483b565b50506000910152565b602081526000825180602084015261487b816040850160208701614838565b601f01601f19169190910160400192915050565b805160ff8116811461470957600080fd5b80516147098161462d565b60006101e082840312156148be57600080fd5b6148c66144ee565b825181526020830151602082015260408301516040820152606083015160608201526080830151608082015260a083015160a082015260c083015160c082015260e083015160e08201526101008084015181830152506101208084015181830152506101408084015181830152506101606149428185016146fe565b908201526101806149548482016146fe565b908201526101a061496684820161488f565b908201526101c06149788482016148a0565b908201529392505050565b60006060828403121561499557600080fd5b604051606081018181106001600160401b03821117156149b7576149b76144d8565b604052825181526149ca6020840161488f565b602082015260408301516149dd8161462d565b60408201529392505050565b80820180821115610949576109496147dc565b60ff8281168282160390811115610949576109496147dc565b600181815b80851115614a50578160001904821115614a3657614a366147dc565b80851615614a4357918102915b93841c9390800290614a1a565b509250929050565b600082614a6757506001610949565b81614a7457506000610949565b8160018114614a8a5760028114614a9457614ab0565b6001915050610949565b60ff841115614aa557614aa56147dc565b50506001821b610949565b5060208310610133831016604e8410600b8410161715614ad3575081810a610949565b614add8383614a15565b8060001904821115614af157614af16147dc565b029392505050565b6000611d1460ff841683614a58565b6020808252602b908201527f496e697469616c697a61626c653a20636f6e7472616374206973206e6f74206960408201526a6e697469616c697a696e6760a81b606082015260800190565b600060208284031215614b6557600080fd5b8151611d148161462d565b600080600060608486031215614b8557600080fd5b8351925060208401519150604084015190509250925092565b60008060408385031215614bb157600080fd5b8251614bbc816141a5565b6020939093015192949293505050565b60008060408385031215614bdf57600080fd5b8251915060208301516001600160401b03811115614bfc57600080fd5b6146238582860161470e565b600082614c2557634e487b7160e01b600052601260045260246000fd5b500490565b81810381811115610949576109496147dc565b60008251614c4f818460208701614838565b9190910192915050565b600060208284031215614c6b57600080fd5b611d148261488f565b634e487b7160e01b600052603160045260246000fd5b80820260008212600160ff1b84141615614ca657614ca66147dc565b8181058314821517610949576109496147dc565b8082018281126000831280158216821582161715614cda57614cda6147dc565b50509291505056fe5361767679537761707320616e642053686f756c64416464206e65656420746f2068617665207468652073616d65206c656e6774682ea26469706673582212208bddd3fd2ad77e8ab928be0d94b37c9c74fdacae182df6c11c04496a821e919364736f6c63430008110033",
  "linkReferences": {},
  "deployedLinkReferences": {}
}